{"abi":[{"type":"constructor","inputs":[{"name":"_semaphoreAddress","type":"address","internalType":"address"}],"stateMutability":"nonpayable"},{"type":"function","name":"acceptVaultAdmin","inputs":[{"name":"_vaultId","type":"uint256","internalType":"uint256"}],"outputs":[],"stateMutability":"nonpayable"},{"type":"function","name":"addMember","inputs":[{"name":"_vaultId","type":"uint256","internalType":"uint256"},{"name":"_identityCommitment","type":"uint256","internalType":"uint256"}],"outputs":[],"stateMutability":"nonpayable"},{"type":"function","name":"admin","inputs":[],"outputs":[{"name":"","type":"address","internalType":"address"}],"stateMutability":"view"},{"type":"function","name":"canAccessInheritance","inputs":[{"name":"_inheritanceId","type":"uint256","internalType":"uint256"},{"name":"_user","type":"address","internalType":"address"}],"outputs":[{"name":"","type":"bool","internalType":"bool"}],"stateMutability":"view"},{"type":"function","name":"changeAdmin","inputs":[{"name":"_newAdmin","type":"address","internalType":"address"}],"outputs":[],"stateMutability":"nonpayable"},{"type":"function","name":"changeVaultAdmin","inputs":[{"name":"_vaultId","type":"uint256","internalType":"uint256"},{"name":"_newAdmin","type":"address","internalType":"address"}],"outputs":[],"stateMutability":"nonpayable"},{"type":"function","name":"claimInheritance","inputs":[{"name":"_inheritanceId","type":"uint256","internalType":"uint256"}],"outputs":[],"stateMutability":"nonpayable"},{"type":"function","name":"createInheritance","inputs":[{"name":"_successorCommitment","type":"uint256","internalType":"uint256"},{"name":"_ipfsHash","type":"string","internalType":"string"},{"name":"_tag","type":"string","internalType":"string"},{"name":"_fileName","type":"string","internalType":"string"},{"name":"_fileSize","type":"uint256","internalType":"uint256"}],"outputs":[{"name":"","type":"uint256","internalType":"uint256"}],"stateMutability":"nonpayable"},{"type":"function","name":"deleteInheritance","inputs":[{"name":"_inheritanceId","type":"uint256","internalType":"uint256"}],"outputs":[],"stateMutability":"nonpayable"},{"type":"function","name":"getActiveInheritancesCount","inputs":[{"name":"_owner","type":"address","internalType":"address"}],"outputs":[{"name":"","type":"uint256","internalType":"uint256"}],"stateMutability":"view"},{"type":"function","name":"getAllUsersFromVault","inputs":[{"name":"_vaultId","type":"uint256","internalType":"uint256"}],"outputs":[{"name":"","type":"address[]","internalType":"address[]"}],"stateMutability":"view"},{"type":"function","name":"getAllVaultIds","inputs":[],"outputs":[{"name":"","type":"uint256[]","internalType":"uint256[]"}],"stateMutability":"view"},{"type":"function","name":"getInheritance","inputs":[{"name":"_inheritanceId","type":"uint256","internalType":"uint256"}],"outputs":[{"name":"owner","type":"address","internalType":"address"},{"name":"successorCommitment","type":"uint256","internalType":"uint256"},{"name":"ipfsHash","type":"string","internalType":"string"},{"name":"tag","type":"string","internalType":"string"},{"name":"fileName","type":"string","internalType":"string"},{"name":"fileSize","type":"uint256","internalType":"uint256"},{"name":"timestamp","type":"uint256","internalType":"uint256"},{"name":"isActive","type":"bool","internalType":"bool"},{"name":"isClaimed","type":"bool","internalType":"bool"},{"name":"parentInheritanceId","type":"uint256","internalType":"uint256"},{"name":"generationLevel","type":"uint256","internalType":"uint256"}],"stateMutability":"view"},{"type":"function","name":"getInheritanceChain","inputs":[{"name":"_inheritanceId","type":"uint256","internalType":"uint256"}],"outputs":[{"name":"chain","type":"uint256[]","internalType":"uint256[]"}],"stateMutability":"view"},{"type":"function","name":"getInheritanceChildren","inputs":[{"name":"_inheritanceId","type":"uint256","internalType":"uint256"}],"outputs":[{"name":"","type":"uint256[]","internalType":"uint256[]"}],"stateMutability":"view"},{"type":"function","name":"getInheritancesByIpfsHash","inputs":[{"name":"_ipfsHash","type":"string","internalType":"string"}],"outputs":[{"name":"","type":"uint256[]","internalType":"uint256[]"}],"stateMutability":"view"},{"type":"function","name":"getOwnerInheritances","inputs":[{"name":"_owner","type":"address","internalType":"address"}],"outputs":[{"name":"","type":"uint256[]","internalType":"uint256[]"}],"stateMutability":"view"},{"type":"function","name":"getRootInheritance","inputs":[{"name":"_inheritanceId","type":"uint256","internalType":"uint256"}],"outputs":[{"name":"","type":"uint256","internalType":"uint256"}],"stateMutability":"view"},{"type":"function","name":"getSuccessorInheritances","inputs":[{"name":"_successorCommitment","type":"uint256","internalType":"uint256"}],"outputs":[{"name":"","type":"uint256[]","internalType":"uint256[]"}],"stateMutability":"view"},{"type":"function","name":"getUserPositionInDatabase","inputs":[{"name":"_user","type":"address","internalType":"address"}],"outputs":[{"name":"","type":"uint256","internalType":"uint256"}],"stateMutability":"view"},{"type":"function","name":"getVaultIdsLength","inputs":[],"outputs":[{"name":"","type":"uint256","internalType":"uint256"}],"stateMutability":"view"},{"type":"function","name":"groupCounter","inputs":[],"outputs":[{"name":"","type":"uint256","internalType":"uint256"}],"stateMutability":"view"},{"type":"function","name":"inheritanceChildren","inputs":[{"name":"","type":"uint256","internalType":"uint256"},{"name":"","type":"uint256","internalType":"uint256"}],"outputs":[{"name":"","type":"uint256","internalType":"uint256"}],"stateMutability":"view"},{"type":"function","name":"inheritanceCounter","inputs":[],"outputs":[{"name":"","type":"uint256","internalType":"uint256"}],"stateMutability":"view"},{"type":"function","name":"inheritances","inputs":[{"name":"","type":"uint256","internalType":"uint256"}],"outputs":[{"name":"owner","type":"address","internalType":"address"},{"name":"successorCommitment","type":"uint256","internalType":"uint256"},{"name":"ipfsHash","type":"string","internalType":"string"},{"name":"tag","type":"string","internalType":"string"},{"name":"fileName","type":"string","internalType":"string"},{"name":"fileSize","type":"uint256","internalType":"uint256"},{"name":"timestamp","type":"uint256","internalType":"uint256"},{"name":"isActive","type":"bool","internalType":"bool"},{"name":"isClaimed","type":"bool","internalType":"bool"},{"name":"parentInheritanceId","type":"uint256","internalType":"uint256"},{"name":"generationLevel","type":"uint256","internalType":"uint256"}],"stateMutability":"view"},{"type":"function","name":"ipfsHashToInheritances","inputs":[{"name":"","type":"string","internalType":"string"},{"name":"","type":"uint256","internalType":"uint256"}],"outputs":[{"name":"","type":"uint256","internalType":"uint256"}],"stateMutability":"view"},{"type":"function","name":"isVaultMember","inputs":[{"name":"_vaultId","type":"uint256","internalType":"uint256"},{"name":"_identityCommitment","type":"uint256","internalType":"uint256"}],"outputs":[{"name":"","type":"bool","internalType":"bool"}],"stateMutability":"view"},{"type":"function","name":"ownerInheritances","inputs":[{"name":"","type":"address","internalType":"address"},{"name":"","type":"uint256","internalType":"uint256"}],"outputs":[{"name":"","type":"uint256","internalType":"uint256"}],"stateMutability":"view"},{"type":"function","name":"passDownInheritance","inputs":[{"name":"_inheritanceId","type":"uint256","internalType":"uint256"},{"name":"_newSuccessorCommitment","type":"uint256","internalType":"uint256"}],"outputs":[{"name":"","type":"uint256","internalType":"uint256"}],"stateMutability":"nonpayable"},{"type":"function","name":"removeMember","inputs":[{"name":"_vaultId","type":"uint256","internalType":"uint256"},{"name":"_identityCommitment","type":"uint256","internalType":"uint256"},{"name":"_merkleProofSiblings","type":"uint256[]","internalType":"uint256[]"}],"outputs":[],"stateMutability":"nonpayable"},{"type":"function","name":"revokeInheritance","inputs":[{"name":"_inheritanceId","type":"uint256","internalType":"uint256"}],"outputs":[],"stateMutability":"nonpayable"},{"type":"function","name":"semaphore","inputs":[],"outputs":[{"name":"","type":"address","internalType":"contract ISemaphore"}],"stateMutability":"view"},{"type":"function","name":"successorInheritances","inputs":[{"name":"","type":"uint256","internalType":"uint256"},{"name":"","type":"uint256","internalType":"uint256"}],"outputs":[{"name":"","type":"uint256","internalType":"uint256"}],"stateMutability":"view"},{"type":"function","name":"updateSuccessor","inputs":[{"name":"_inheritanceId","type":"uint256","internalType":"uint256"},{"name":"_newSuccessorCommitment","type":"uint256","internalType":"uint256"}],"outputs":[],"stateMutability":"nonpayable"},{"type":"function","name":"userDatabase","inputs":[{"name":"","type":"address","internalType":"address"}],"outputs":[{"name":"vaultID","type":"uint256","internalType":"uint256"},{"name":"index","type":"uint256","internalType":"uint256"},{"name":"identityCommitment","type":"uint256","internalType":"uint256"},{"name":"merkleTreeRoot","type":"uint256","internalType":"uint256"}],"stateMutability":"view"},{"type":"function","name":"vaultIds","inputs":[{"name":"","type":"uint256","internalType":"uint256"}],"outputs":[{"name":"","type":"uint256","internalType":"uint256"}],"stateMutability":"view"},{"type":"function","name":"vaultUsers","inputs":[{"name":"","type":"uint256","internalType":"uint256"},{"name":"","type":"uint256","internalType":"uint256"}],"outputs":[{"name":"","type":"address","internalType":"address"}],"stateMutability":"view"},{"type":"event","name":"ChangeAdmin","inputs":[{"name":"_newAdmin","type":"address","indexed":false,"internalType":"address"}],"anonymous":false},{"type":"event","name":"InheritanceClaimed","inputs":[{"name":"inheritanceId","type":"uint256","indexed":true,"internalType":"uint256"},{"name":"successorCommitment","type":"uint256","indexed":true,"internalType":"uint256"}],"anonymous":false},{"type":"event","name":"InheritanceCreated","inputs":[{"name":"inheritanceId","type":"uint256","indexed":true,"internalType":"uint256"},{"name":"owner","type":"address","indexed":true,"internalType":"address"},{"name":"successorCommitment","type":"uint256","indexed":true,"internalType":"uint256"},{"name":"ipfsHash","type":"string","indexed":false,"internalType":"string"},{"name":"tag","type":"string","indexed":false,"internalType":"string"},{"name":"parentInheritanceId","type":"uint256","indexed":false,"internalType":"uint256"},{"name":"generationLevel","type":"uint256","indexed":false,"internalType":"uint256"}],"anonymous":false},{"type":"event","name":"InheritanceDeleted","inputs":[{"name":"inheritanceId","type":"uint256","indexed":true,"internalType":"uint256"},{"name":"owner","type":"address","indexed":true,"internalType":"address"}],"anonymous":false},{"type":"event","name":"InheritancePassedDown","inputs":[{"name":"originalInheritanceId","type":"uint256","indexed":true,"internalType":"uint256"},{"name":"newInheritanceId","type":"uint256","indexed":true,"internalType":"uint256"},{"name":"newSuccessorCommitment","type":"uint256","indexed":true,"internalType":"uint256"},{"name":"generationLevel","type":"uint256","indexed":false,"internalType":"uint256"}],"anonymous":false},{"type":"event","name":"InheritanceRevoked","inputs":[{"name":"inheritanceId","type":"uint256","indexed":true,"internalType":"uint256"},{"name":"owner","type":"address","indexed":true,"internalType":"address"}],"anonymous":false},{"type":"event","name":"SuccessorUpdated","inputs":[{"name":"inheritanceId","type":"uint256","indexed":true,"internalType":"uint256"},{"name":"oldSuccessorCommitment","type":"uint256","indexed":true,"internalType":"uint256"},{"name":"newSuccessorCommitment","type":"uint256","indexed":true,"internalType":"uint256"}],"anonymous":false},{"type":"error","name":"CannotDeleteClaimedInheritance","inputs":[]},{"type":"error","name":"CannotRevokeClaimedInheritance","inputs":[]},{"type":"error","name":"CannotSetSelfAsSuccessor","inputs":[]},{"type":"error","name":"CannotUpdateClaimedInheritance","inputs":[]},{"type":"error","name":"EmptyFileName","inputs":[]},{"type":"error","name":"EmptyIpfsHash","inputs":[]},{"type":"error","name":"EmptyTag","inputs":[]},{"type":"error","name":"InheritanceAlreadyClaimed","inputs":[]},{"type":"error","name":"InheritanceAlreadyRevoked","inputs":[]},{"type":"error","name":"InheritanceNotActive","inputs":[]},{"type":"error","name":"InvalidSuccessorCommitment","inputs":[]},{"type":"error","name":"NotAdmin","inputs":[]},{"type":"error","name":"OnlyOwnerCanDelete","inputs":[]},{"type":"error","name":"OnlyOwnerCanRevoke","inputs":[]},{"type":"error","name":"OnlyOwnerCanUpdate","inputs":[]},{"type":"error","name":"OnlyOwnerOrSuccessorCanPassDown","inputs":[]},{"type":"error","name":"OnlySuccessorCanClaim","inputs":[]}],"bytecode":{"object":"0x6080604052348015600e575f5ffd5b506040516128ae3803806128ae833981016040819052602b916057565b5f80546001600160a01b039092166001600160a01b031992831617905560028054909116331790556082565b5f602082840312156066575f5ffd5b81516001600160a01b0381168114607b575f5ffd5b9392505050565b61281f8061008f5f395ff3fe608060405234801561000f575f5ffd5b506004361061021e575f3560e01c80638ce8a0a51161012a578063b648c4c6116100b4578063d3cf4d1811610079578063d3cf4d1814610514578063d7bed6a514610527578063dd43b6371461054a578063e257987b1461055d578063f851a44014610570575f5ffd5b8063b648c4c6146104ca578063b7e6aa71146104dd578063be62c3cf146104e5578063c3fd2c5f146104f8578063d24924fe1461050b575f5ffd5b8063a6acbb19116100fa578063a6acbb1914610454578063adaa091d14610467578063b0c488bf1461047a578063b18f809c1461048d578063b3ad7e04146104a0575f5ffd5b80638ce8a0a5146104085780638f2839701461041b57806392ccb8ff1461042e578063a499360214610441575f5ffd5b806369558022116101ab5780636fa8ec981161017b5780636fa8ec981461034f57806379bbc802146103a55780637b5d2534146103d057806383455b9f146103e25780638a25878f146103f5575f5ffd5b806369558022146102f65780636cdd32fe146103095780636eb0a36e1461031c5780636f40bf5a14610347575f5ffd5b806338cae788116101f157806338cae788146102945780633ed111e31461029d57806341ca5b99146102b057806347ca3deb146102c357806367ce08b7146102d6575f5ffd5b806310762221146102225780631783efc31461024b5780631d9e7169146102605780632e1174f614610281575b5f5ffd5b6102356102303660046120c5565b610583565b60405161024291906120ff565b60405180910390f35b61025e610259366004612141565b6105f1565b005b61027361026e36600461217c565b610655565b604051908152602001610242565b61027361028f366004612141565b61071d565b610273600a5481565b6102736102ab366004612195565b610748565b6102356102be366004612195565b610767565b6102736102d1366004612195565b6107c4565b6102e96102e4366004612195565b6107f9565b60405161024291906121ac565b610273610304366004612141565b610861565b61025e6103173660046121ec565b61087a565b61027361032a36600461217c565b6001600160a01b03165f9081526003602052604090206001015490565b600b54610273565b61038561035d36600461217c565b600360208190525f918252604090912080546001820154600283015492909301549092919084565b604080519485526020850193909352918301526060820152608001610242565b6103b86103b3366004612141565b61090d565b6040516001600160a01b039091168152602001610242565b5f546103b8906001600160a01b031681565b61025e6103f0366004612195565b610941565b61023561040336600461217c565b610a04565b610273610416366004612141565b610a6b565b61025e61042936600461217c565b610f1b565b61025e61043c366004612195565b610f9a565b61027361044f36600461226b565b61104b565b61025e610462366004612195565b611075565b61025e6104753660046122ad565b61117c565b610235610488366004612195565b6111b4565b61025e61049b366004612141565b611211565b6104b36104ae366004612195565b611319565b6040516102429b9a99989796959493929190612305565b61025e6104d8366004612195565b61150f565b61023561156a565b6102356104f3366004612195565b6115c0565b61027361050636600461238c565b6116a7565b61027360015481565b6102736105223660046123b4565b6116c0565b61053a6105353660046122ad565b611a30565b6040519015158152602001610242565b6104b3610558366004612195565b611c8b565b61053a61056b366004612141565b611f5b565b6002546103b8906001600160a01b031681565b60606009826040516105959190612453565b90815260408051918290036020908101832080548083028501830190935282845291908301828280156105e557602002820191905f5260205f20905b8154815260200190600101908083116105d1575b50505050509050919050565b5f54604051631783efc360e01b815260048101849052602481018390526001600160a01b0390911690631783efc3906044015b5f604051808303815f87803b15801561063b575f5ffd5b505af115801561064d573d5f5f3e3d5ffd5b505050505050565b6001600160a01b0381165f908152600660209081526040808320805482518185028101850190935280835284938301828280156106af57602002820191905f5260205f20905b81548152602001906001019080831161069b575b509394505f935083925050505b82518110156107155760055f8483815181106106da576106da612469565b60209081029190910181015182528101919091526040015f206007015460ff161561070d578161070981612491565b9250505b6001016106bc565b509392505050565b6008602052815f5260405f208181548110610736575f80fd5b905f5260205f20015f91509150505481565b600b8181548110610757575f80fd5b5f91825260209091200154905081565b5f818152600860209081526040918290208054835181840281018401909452808452606093928301828280156105e557602002820191905f5260205f20908154815260200190600101908083116105d15750505050509050919050565b5f815b5f81815260056020526040902060080154156107f3575f908152600560205260409020600801546107c7565b92915050565b5f818152600460209081526040918290208054835181840281018401909452808452606093928301828280156105e557602002820191905f5260205f20905b81546001600160a01b031681526001909101906020018083116108385750505050509050919050565b6007602052815f5260405f208181548110610736575f80fd5b6002546001600160a01b031633146108a557604051637bfa4b9f60e01b815260040160405180910390fd5b5f5460405163366e997f60e11b81526001600160a01b0390911690636cdd32fe906108da9087908790879087906004016124a9565b5f604051808303815f87803b1580156108f1575f5ffd5b505af1158015610903573d5f5f3e3d5ffd5b5050505050505050565b6004602052815f5260405f208181548110610926575f80fd5b5f918252602090912001546001600160a01b03169150829050565b5f81815260056020526040902080546001600160a01b031633146109785760405163279c323f60e11b815260040160405180910390fd5b600781015460ff1661099d57604051634232846160e01b815260040160405180910390fd5b6007810154610100900460ff16156109c8576040516336a75caf60e21b815260040160405180910390fd5b60078101805460ff19169055604051339083907f1f103b3e95fa4f754fff511471cef17cd389e7908ac60da3fb0868c7840703d9905f90a35050565b6001600160a01b0381165f908152600660209081526040918290208054835181840281018401909452808452606093928301828280156105e557602002820191905f5260205f20908154815260200190600101908083116105d15750505050509050919050565b5f828152600560205260408120600781015460ff16610a9d57604051638162913b60e01b815260040160405180910390fd5b80546001600160a01b03163314610ac75760405163b8e9b22760e01b815260040160405180910390fd5b825f03610ae7576040516364a034c160e11b815260040160405180910390fd5b600a80545f9182610af783612491565b919050559050604051806101600160405280336001600160a01b03168152602001858152602001836002018054610b2d906124f0565b80601f0160208091040260200160405190810160405280929190818152602001828054610b59906124f0565b8015610ba45780601f10610b7b57610100808354040283529160200191610ba4565b820191905f5260205f20905b815481529060010190602001808311610b8757829003601f168201915b50505050508152602001836003018054610bbd906124f0565b80601f0160208091040260200160405190810160405280929190818152602001828054610be9906124f0565b8015610c345780601f10610c0b57610100808354040283529160200191610c34565b820191905f5260205f20905b815481529060010190602001808311610c1757829003601f168201915b50505050508152602001836004018054610c4d906124f0565b80601f0160208091040260200160405190810160405280929190818152602001828054610c79906124f0565b8015610cc45780601f10610c9b57610100808354040283529160200191610cc4565b820191905f5260205f20905b815481529060010190602001808311610ca757829003601f168201915b50505050508152602001836005015481526020014281526020016001151581526020015f1515815260200186815260200183600901546001610d069190612528565b90525f82815260056020908152604091829020835181546001600160a01b0319166001600160a01b03909116178155908301516001820155908201516002820190610d519082612584565b5060608201516003820190610d669082612584565b5060808201516004820190610d7b9082612584565b5060a0820151600582015560c082015160068083019190915560e0830151600780840180546101008088015115150261ff00199415159490941661ffff199091161792909217909155610120840151600884015561014090930151600992830155335f90815260209182526040808220805460018181018355918452848420018790558983529483528082208054958601815582529190209092018390559051610e2990600285019061263f565b90815260408051602092819003830190208054600180820183555f928352848320909101859055888252600884529181208054808401825590825292902090910182905560098301548591839188917f2bb310474eee92bea17aa734f84b656d79b1a7be22416e21db1e593dc03ee97b91610ea391612528565b60405190815260200160405180910390a483336001600160a01b0316827ff8496ab4613f8a4a1e487241f4348a41086e79e22f67283cb688d53f3ca40ce385600201866003018a88600901546001610efb9190612528565b604051610f0b949392919061272f565b60405180910390a4949350505050565b6002546001600160a01b03163314610f4657604051637bfa4b9f60e01b815260040160405180910390fd5b600280546001600160a01b0319166001600160a01b0383169081179091556040519081527f927cc064d7b7fa546fa7706bc01845d27d06f15af3ae90a672cc44735928e9619060200160405180910390a150565b5f818152600560205260409020600781015460ff16610fcc57604051638162913b60e01b815260040160405180910390fd5b6007810154610100900460ff1615610ff757604051631e603eb960e21b815260040160405180910390fd5b60078101805461ff00191661010017905580546001600160a01b03191633178155600181015460405183907f3122b1c1ee577f3f9d146ca468566c9cd8a23bba3e0778a7412c41e908ed388d905f90a35050565b81516020818401810180516009825292820191850191909120919052805482908110610736575f80fd5b5f81815260056020526040902080546001600160a01b031633146110ac576040516337de7f8760e11b815260040160405180910390fd5b6007810154610100900460ff16156110d75760405163a67e159b60e01b815260040160405180910390fd5b5f82815260056020526040812080546001600160a01b031916815560018101829055906111076002830182611fd4565b611114600383015f611fd4565b611121600483015f611fd4565b505f600582018190556006820181905560078201805461ffff19169055600882018190556009909101819055604051339184917f442902d07e25bcb4b759bbc55a41dbbb2158c2673eab91557a27e18ba90cfb009190a35050565b5f54604051632b47741360e11b8152600481018490526001600160a01b0383811660248301529091169063568ee82690604401610624565b5f818152600760209081526040918290208054835181840281018401909452808452606093928301828280156105e557602002820191905f5260205f20908154815260200190600101908083116105d15750505050509050919050565b5f82815260056020526040902080546001600160a01b031633146112485760405163ec7c6cc360e01b815260040160405180910390fd5b600781015460ff1661126d57604051638162913b60e01b815260040160405180910390fd5b6007810154610100900460ff1615611298576040516302fdf2f760e51b815260040160405180910390fd5b815f036112b8576040516364a034c160e11b815260040160405180910390fd5b60018082018054908490555f848152600760209081526040808320805495860181558352908220909301869055915190918491839187917fb316eb390e5f98e0bd63c5591f7b2c0bdd74a6ed5b6429bc4ed4022995f1f4fc9190a450505050565b60056020525f90815260409020805460018201546002830180546001600160a01b0390931693919261134a906124f0565b80601f0160208091040260200160405190810160405280929190818152602001828054611376906124f0565b80156113c15780601f10611398576101008083540402835291602001916113c1565b820191905f5260205f20905b8154815290600101906020018083116113a457829003601f168201915b5050505050908060030180546113d6906124f0565b80601f0160208091040260200160405190810160405280929190818152602001828054611402906124f0565b801561144d5780601f106114245761010080835404028352916020019161144d565b820191905f5260205f20905b81548152906001019060200180831161143057829003601f168201915b505050505090806004018054611462906124f0565b80601f016020809104026020016040519081016040528092919081815260200182805461148e906124f0565b80156114d95780601f106114b0576101008083540402835291602001916114d9565b820191905f5260205f20905b8154815290600101906020018083116114bc57829003601f168201915b5050505060058301546006840154600785015460088601546009909601549495929491935060ff8082169361010090920416918b565b5f54604051636d1e6d2960e11b8152600481018390526001600160a01b039091169063da3cda52906024015f604051808303815f87803b158015611551575f5ffd5b505af1158015611563573d5f5f3e3d5ffd5b5050505050565b6060600b8054806020026020016040519081016040528092919081815260200182805480156115b657602002820191905f5260205f20905b8154815260200190600101908083116115a2575b5050505050905090565b60606001825b5f81815260056020526040902060080154156115ff575f90815260056020526040902060080154816115f781612491565b9250506115c6565b8167ffffffffffffffff81111561161857611618612026565b604051908082528060200260200182016040528015611641578160200160208202803683370190505b509250839050815b801561169f57818461165c600184612767565b8151811061166c5761166c612469565b6020908102919091018101919091525f9283526005905260409091206008015490806116978161277a565b915050611649565b505050919050565b6006602052815f5260405f208181548110610736575f80fd5b5f855f036116e1576040516364a034c160e11b815260040160405180910390fd5b84515f036117025760405163504d123560e01b815260040160405180910390fd5b83515f0361172357604051634374dbbd60e01b815260040160405180910390fd5b82515f036117445760405163f921971d60e01b815260040160405180910390fd5b5f5f5f9054906101000a90046001600160a01b03166001600160a01b031663575185ed6040518163ffffffff1660e01b81526004016020604051808303815f875af1158015611795573d5f5f3e3d5ffd5b505050506040513d601f19601f820116820180604052508101906117b9919061278f565b600b805460018181019092557f0175b7a638427703f0dbe7bb9bbf987a2551717b34e79f33b5b1008d1fa01db901829055604080516080810182528381525f60208281018281528385018381526060850184815233855260039384905295842094518555905195840195909555935160028301559151920191909155600a80549293509091908261184983612491565b90915550604080516101608101825233815260208082018c81528284018c8152606084018c9052608084018b905260a084018a90524260c0850152600160e085018190525f610100860181905261012086018190526101408601819052878152600590945294909220835181546001600160a01b0319166001600160a01b03909116178155905193810193909355519293509160028201906118eb9082612584565b50606082015160038201906119009082612584565b50608082015160048201906119159082612584565b5060a0820151600582015560c082015160068083019190915560e0830151600780840180546101008088015115150261ff00199415159490941661ffff199091161792909217909155610120840151600884015561014090930151600992830155335f90815260209182526040808220805460018181018355918452848420018790558d835294835280822080549586018155825291902090920183905590516119c0908990612453565b908152604051908190036020908101822080546001810182555f9182529181209091018390558991339184917ff8496ab4613f8a4a1e487241f4348a41086e79e22f67283cb688d53f3ca40ce391611a1d918d918d9181906127a6565b60405180910390a4979650505050505050565b5f82815260056020908152604080832081516101608101835281546001600160a01b0316815260018201549381019390935260028101805485949384019190611a78906124f0565b80601f0160208091040260200160405190810160405280929190818152602001828054611aa4906124f0565b8015611aef5780601f10611ac657610100808354040283529160200191611aef565b820191905f5260205f20905b815481529060010190602001808311611ad257829003601f168201915b50505050508152602001600382018054611b08906124f0565b80601f0160208091040260200160405190810160405280929190818152602001828054611b34906124f0565b8015611b7f5780601f10611b5657610100808354040283529160200191611b7f565b820191905f5260205f20905b815481529060010190602001808311611b6257829003601f168201915b50505050508152602001600482018054611b98906124f0565b80601f0160208091040260200160405190810160405280929190818152602001828054611bc4906124f0565b8015611c0f5780601f10611be657610100808354040283529160200191611c0f565b820191905f5260205f20905b815481529060010190602001808311611bf257829003601f168201915b50505091835250506005820154602082015260068201546040820152600782015460ff808216151560608401526101009091041615156080820152600882015460a082015260099091015460c09091015280519091506001600160a01b0390811690841603611c825760019150506107f3565b505f9392505050565b5f5f60608060605f5f5f5f5f5f5f60055f8e81526020019081526020015f20604051806101600160405290815f82015f9054906101000a90046001600160a01b03166001600160a01b03166001600160a01b0316815260200160018201548152602001600282018054611cfd906124f0565b80601f0160208091040260200160405190810160405280929190818152602001828054611d29906124f0565b8015611d745780601f10611d4b57610100808354040283529160200191611d74565b820191905f5260205f20905b815481529060010190602001808311611d5757829003601f168201915b50505050508152602001600382018054611d8d906124f0565b80601f0160208091040260200160405190810160405280929190818152602001828054611db9906124f0565b8015611e045780601f10611ddb57610100808354040283529160200191611e04565b820191905f5260205f20905b815481529060010190602001808311611de757829003601f168201915b50505050508152602001600482018054611e1d906124f0565b80601f0160208091040260200160405190810160405280929190818152602001828054611e49906124f0565b8015611e945780601f10611e6b57610100808354040283529160200191611e94565b820191905f5260205f20905b815481529060010190602001808311611e7757829003601f168201915b505050505081526020016005820154815260200160068201548152602001600782015f9054906101000a900460ff161515151581526020016007820160019054906101000a900460ff16151515158152602001600882015481526020016009820154815250509050805f015181602001518260400151836060015184608001518560a001518660c001518760e001518861010001518961012001518a61014001519b509b509b509b509b509b509b509b509b509b509b505091939597999b90929496989a50565b5f8054604051632414275160e21b815260048101859052602481018490526001600160a01b03909116906390509d4490604401602060405180830381865afa158015611fa9573d5f5f3e3d5ffd5b505050506040513d601f19601f82011682018060405250810190611fcd91906127ca565b9392505050565b508054611fe0906124f0565b5f825580601f10611fef575050565b601f0160209004905f5260205f209081019061200b919061200e565b50565b5b80821115612022575f815560010161200f565b5090565b634e487b7160e01b5f52604160045260245ffd5b5f82601f830112612049575f5ffd5b813567ffffffffffffffff81111561206357612063612026565b604051601f8201601f19908116603f0116810167ffffffffffffffff8111828210171561209257612092612026565b6040528181528382016020018510156120a9575f5ffd5b816020850160208301375f918101602001919091529392505050565b5f602082840312156120d5575f5ffd5b813567ffffffffffffffff8111156120eb575f5ffd5b6120f78482850161203a565b949350505050565b602080825282518282018190525f918401906040840190835b81811015612136578351835260209384019390920191600101612118565b509095945050505050565b5f5f60408385031215612152575f5ffd5b50508035926020909101359150565b80356001600160a01b0381168114612177575f5ffd5b919050565b5f6020828403121561218c575f5ffd5b611fcd82612161565b5f602082840312156121a5575f5ffd5b5035919050565b602080825282518282018190525f918401906040840190835b818110156121365783516001600160a01b03168352602093840193909201916001016121c5565b5f5f5f5f606085870312156121ff575f5ffd5b8435935060208501359250604085013567ffffffffffffffff811115612223575f5ffd5b8501601f81018713612233575f5ffd5b803567ffffffffffffffff811115612249575f5ffd5b8760208260051b840101111561225d575f5ffd5b949793965060200194505050565b5f5f6040838503121561227c575f5ffd5b823567ffffffffffffffff811115612292575f5ffd5b61229e8582860161203a565b95602094909401359450505050565b5f5f604083850312156122be575f5ffd5b823591506122ce60208401612161565b90509250929050565b5f81518084528060208401602086015e5f602082860101526020601f19601f83011685010191505092915050565b60018060a01b038c1681528a602082015261016060408201525f61232d61016083018c6122d7565b828103606084015261233f818c6122d7565b90508281036080840152612353818b6122d7565b60a0840199909952505060c081019590955292151560e08501529015156101008401526101208301526101409091015295945050505050565b5f5f6040838503121561239d575f5ffd5b6123a683612161565b946020939093013593505050565b5f5f5f5f5f60a086880312156123c8575f5ffd5b85359450602086013567ffffffffffffffff8111156123e5575f5ffd5b6123f18882890161203a565b945050604086013567ffffffffffffffff81111561240d575f5ffd5b6124198882890161203a565b935050606086013567ffffffffffffffff811115612435575f5ffd5b6124418882890161203a565b95989497509295608001359392505050565b5f82518060208501845e5f920191825250919050565b634e487b7160e01b5f52603260045260245ffd5b634e487b7160e01b5f52601160045260245ffd5b5f600182016124a2576124a261247d565b5060010190565b8481526020810184905260606040820181905281018290525f6001600160fb1b038311156124d5575f5ffd5b8260051b808560808501379190910160800195945050505050565b600181811c9082168061250457607f821691505b60208210810361252257634e487b7160e01b5f52602260045260245ffd5b50919050565b808201808211156107f3576107f361247d565b601f82111561257f57805f5260205f20601f840160051c810160208510156125605750805b601f840160051c820191505b81811015611563575f815560010161256c565b505050565b815167ffffffffffffffff81111561259e5761259e612026565b6125b2816125ac84546124f0565b8461253b565b6020601f8211600181146125e4575f83156125cd5750848201515b5f19600385901b1c1916600184901b178455611563565b5f84815260208120601f198516915b8281101561261357878501518255602094850194600190920191016125f3565b508482101561263057868401515f19600387901b60f8161c191681555b50505050600190811b01905550565b5f5f835461264c816124f0565b6001821680156126635760018114612678576126a5565b60ff19831686528115158202860193506126a5565b865f5260205f205f5b8381101561269d57815488820152600190910190602001612681565b505081860193505b509195945050505050565b5f81546126bc816124f0565b8085526001821680156126d657600181146126f257612726565b60ff1983166020870152602082151560051b8701019350612726565b845f5260205f205f5b8381101561271d5781546020828a0101526001820191506020810190506126fb565b87016020019450505b50505092915050565b608081525f61274160808301876126b0565b828103602084015261275381876126b0565b604084019590955250506060015292915050565b818103818111156107f3576107f361247d565b5f816127885761278861247d565b505f190190565b5f6020828403121561279f575f5ffd5b5051919050565b608081525f6127b860808301876122d7565b828103602084015261275381876122d7565b5f602082840312156127da575f5ffd5b81518015158114611fcd575f5ffdfea26469706673582212204056d375f07920069e73702a0f20ca1911fc47186005ee53e74a1c4dbc85ab6664736f6c634300081e0033","linkReferences":{}},"methodIdentifiers":{"acceptVaultAdmin(uint256)":"b648c4c6","addMember(uint256,uint256)":"1783efc3","admin()":"f851a440","canAccessInheritance(uint256,address)":"d7bed6a5","changeAdmin(address)":"8f283970","changeVaultAdmin(uint256,address)":"adaa091d","claimInheritance(uint256)":"92ccb8ff","createInheritance(uint256,string,string,string,uint256)":"d3cf4d18","deleteInheritance(uint256)":"a6acbb19","getActiveInheritancesCount(address)":"1d9e7169","getAllUsersFromVault(uint256)":"67ce08b7","getAllVaultIds()":"b7e6aa71","getInheritance(uint256)":"dd43b637","getInheritanceChain(uint256)":"be62c3cf","getInheritanceChildren(uint256)":"41ca5b99","getInheritancesByIpfsHash(string)":"10762221","getOwnerInheritances(address)":"8a25878f","getRootInheritance(uint256)":"47ca3deb","getSuccessorInheritances(uint256)":"b0c488bf","getUserPositionInDatabase(address)":"6eb0a36e","getVaultIdsLength()":"6f40bf5a","groupCounter()":"d24924fe","inheritanceChildren(uint256,uint256)":"2e1174f6","inheritanceCounter()":"38cae788","inheritances(uint256)":"b3ad7e04","ipfsHashToInheritances(string,uint256)":"a4993602","isVaultMember(uint256,uint256)":"e257987b","ownerInheritances(address,uint256)":"c3fd2c5f","passDownInheritance(uint256,uint256)":"8ce8a0a5","removeMember(uint256,uint256,uint256[])":"6cdd32fe","revokeInheritance(uint256)":"83455b9f","semaphore()":"7b5d2534","successorInheritances(uint256,uint256)":"69558022","updateSuccessor(uint256,uint256)":"b18f809c","userDatabase(address)":"6fa8ec98","vaultIds(uint256)":"3ed111e3","vaultUsers(uint256,uint256)":"79bbc802"},"id":18}